{
  "_format": "hh-sol-artifact-1",
  "contractName": "Presale",
  "sourceName": "contracts/Presale.sol",
  "abi": [
    {
      "anonymous": false,
      "inputs": [
        {
          "indexed": true,
          "internalType": "address",
          "name": "buyer",
          "type": "address"
        },
        {
          "indexed": false,
          "internalType": "uint256",
          "name": "value",
          "type": "uint256"
        }
      ],
      "name": "Bought",
      "type": "event"
    },
    {
      "anonymous": false,
      "inputs": [
        {
          "indexed": true,
          "internalType": "address",
          "name": "claimer",
          "type": "address"
        },
        {
          "indexed": false,
          "internalType": "uint256",
          "name": "amount",
          "type": "uint256"
        }
      ],
      "name": "Claimed",
      "type": "event"
    },
    {
      "anonymous": false,
      "inputs": [
        {
          "indexed": false,
          "internalType": "uint8",
          "name": "version",
          "type": "uint8"
        }
      ],
      "name": "Initialized",
      "type": "event"
    },
    {
      "anonymous": false,
      "inputs": [
        {
          "indexed": true,
          "internalType": "address",
          "name": "previousOwner",
          "type": "address"
        },
        {
          "indexed": true,
          "internalType": "address",
          "name": "newOwner",
          "type": "address"
        }
      ],
      "name": "OwnershipTransferred",
      "type": "event"
    },
    {
      "anonymous": false,
      "inputs": [
        {
          "indexed": false,
          "internalType": "address[]",
          "name": "receivers",
          "type": "address[]"
        },
        {
          "indexed": false,
          "internalType": "uint16[]",
          "name": "ratios",
          "type": "uint16[]"
        },
        {
          "indexed": false,
          "internalType": "uint256",
          "name": "presaleRatio",
          "type": "uint256"
        },
        {
          "indexed": false,
          "internalType": "uint256",
          "name": "unlockDate",
          "type": "uint256"
        }
      ],
      "name": "RatioUpdated",
      "type": "event"
    },
    {
      "anonymous": false,
      "inputs": [
        {
          "indexed": true,
          "internalType": "uint256",
          "name": "oldStatus",
          "type": "uint256"
        },
        {
          "indexed": true,
          "internalType": "uint256",
          "name": "newStatus",
          "type": "uint256"
        }
      ],
      "name": "StatusUpdated",
      "type": "event"
    },
    {
      "inputs": [],
      "name": "buyWithETH",
      "outputs": [],
      "stateMutability": "payable",
      "type": "function"
    },
    {
      "inputs": [
        {
          "internalType": "uint256",
          "name": "_amount",
          "type": "uint256"
        }
      ],
      "name": "buyWithToken",
      "outputs": [],
      "stateMutability": "nonpayable",
      "type": "function"
    },
    {
      "inputs": [],
      "name": "claim",
      "outputs": [],
      "stateMutability": "nonpayable",
      "type": "function"
    },
    {
      "inputs": [
        {
          "internalType": "address",
          "name": "_investor",
          "type": "address"
        }
      ],
      "name": "getInvestor",
      "outputs": [
        {
          "internalType": "uint256",
          "name": "value",
          "type": "uint256"
        },
        {
          "internalType": "bool",
          "name": "isInvest",
          "type": "bool"
        },
        {
          "internalType": "bool",
          "name": "isClaimed",
          "type": "bool"
        }
      ],
      "stateMutability": "view",
      "type": "function"
    },
    {
      "inputs": [],
      "name": "getInvestorList",
      "outputs": [
        {
          "internalType": "address[]",
          "name": "",
          "type": "address[]"
        }
      ],
      "stateMutability": "view",
      "type": "function"
    },
    {
      "inputs": [
        {
          "internalType": "address[]",
          "name": "_receivers",
          "type": "address[]"
        },
        {
          "internalType": "uint16[]",
          "name": "_ratios",
          "type": "uint16[]"
        },
        {
          "internalType": "uint256",
          "name": "_presaleRatio",
          "type": "uint256"
        },
        {
          "internalType": "uint256",
          "name": "_unlockDate",
          "type": "uint256"
        }
      ],
      "name": "initialize",
      "outputs": [],
      "stateMutability": "nonpayable",
      "type": "function"
    },
    {
      "inputs": [],
      "name": "lockRatio",
      "outputs": [
        {
          "internalType": "uint16",
          "name": "",
          "type": "uint16"
        }
      ],
      "stateMutability": "view",
      "type": "function"
    },
    {
      "inputs": [],
      "name": "owner",
      "outputs": [
        {
          "internalType": "address",
          "name": "",
          "type": "address"
        }
      ],
      "stateMutability": "view",
      "type": "function"
    },
    {
      "inputs": [],
      "name": "pancakeRouter",
      "outputs": [
        {
          "internalType": "contract IPancakeRouter02",
          "name": "",
          "type": "address"
        }
      ],
      "stateMutability": "view",
      "type": "function"
    },
    {
      "inputs": [],
      "name": "presaleRatio",
      "outputs": [
        {
          "internalType": "uint256",
          "name": "",
          "type": "uint256"
        }
      ],
      "stateMutability": "view",
      "type": "function"
    },
    {
      "inputs": [],
      "name": "presaleToken",
      "outputs": [
        {
          "internalType": "address",
          "name": "",
          "type": "address"
        }
      ],
      "stateMutability": "view",
      "type": "function"
    },
    {
      "inputs": [
        {
          "internalType": "uint256",
          "name": "",
          "type": "uint256"
        }
      ],
      "name": "receivers",
      "outputs": [
        {
          "internalType": "address",
          "name": "",
          "type": "address"
        }
      ],
      "stateMutability": "view",
      "type": "function"
    },
    {
      "inputs": [
        {
          "internalType": "address",
          "name": "",
          "type": "address"
        }
      ],
      "name": "receiversRatio",
      "outputs": [
        {
          "internalType": "uint16",
          "name": "",
          "type": "uint16"
        }
      ],
      "stateMutability": "view",
      "type": "function"
    },
    {
      "inputs": [],
      "name": "renounceOwnership",
      "outputs": [],
      "stateMutability": "nonpayable",
      "type": "function"
    },
    {
      "inputs": [],
      "name": "status",
      "outputs": [
        {
          "internalType": "enum Presale.Status",
          "name": "",
          "type": "uint8"
        }
      ],
      "stateMutability": "view",
      "type": "function"
    },
    {
      "inputs": [
        {
          "internalType": "address",
          "name": "newOwner",
          "type": "address"
        }
      ],
      "name": "transferOwnership",
      "outputs": [],
      "stateMutability": "nonpayable",
      "type": "function"
    },
    {
      "inputs": [
        {
          "internalType": "address",
          "name": "to",
          "type": "address"
        }
      ],
      "name": "unlock",
      "outputs": [],
      "stateMutability": "nonpayable",
      "type": "function"
    },
    {
      "inputs": [
        {
          "internalType": "address[]",
          "name": "_receivers",
          "type": "address[]"
        },
        {
          "internalType": "uint16[]",
          "name": "_ratios",
          "type": "uint16[]"
        },
        {
          "internalType": "uint256",
          "name": "_presaleRatio",
          "type": "uint256"
        },
        {
          "internalType": "uint256",
          "name": "_unlockDate",
          "type": "uint256"
        }
      ],
      "name": "updateRatio",
      "outputs": [],
      "stateMutability": "nonpayable",
      "type": "function"
    },
    {
      "inputs": [
        {
          "internalType": "uint256",
          "name": "_status",
          "type": "uint256"
        }
      ],
      "name": "updateStatus",
      "outputs": [],
      "stateMutability": "nonpayable",
      "type": "function"
    }
  ],
  "bytecode": "0x608060405234801561001057600080fd5b5061203d806100206000396000f3fe6080604052600436106100e35760003560e01c8062dd9440146100e8578063150d283d1461010a5780631c7b426514610112578063200d2ed21461013257806324ffea1a146101625780632f6c493c146101975780634e71d92d146101b7578063580433f3146101cc57806364cdb69e146101f0578063715018a6146102125780638da5cb5b146102275780638f35a75e1461023c5780639c3709ea14610279578063ac74b42d146102a7578063bfd772fc146102c7578063c21ebd07146102e7578063cc3a2f051461030f578063d61e720114610340578063f2fde38b14610360575b600080fd5b3480156100f457600080fd5b506101086101033660046119ea565b610380565b005b610108610655565b34801561011e57600080fd5b5061010861012d3660046119ea565b6109e9565b34801561013e57600080fd5b50606e5461014c9060ff1681565b6040516101599190611ad1565b60405180910390f35b34801561016e57600080fd5b5061018a73dac17f958d2ee523a2206206994597c13d831ec781565b6040516101599190611af9565b3480156101a357600080fd5b506101086101b2366004611b0d565b610b4b565b3480156101c357600080fd5b50610108610cd4565b3480156101d857600080fd5b506101e260685481565b604051908152602001610159565b3480156101fc57600080fd5b50610205610e33565b6040516101599190611b75565b34801561021e57600080fd5b50610108610e44565b34801561023357600080fd5b5061018a610e58565b34801561024857600080fd5b5061025c610257366004611b0d565b610e67565b604080519384529115156020840152151590820152606001610159565b34801561028557600080fd5b506067546102949061ffff1681565b60405161ffff9091168152602001610159565b3480156102b357600080fd5b506101086102c2366004611b88565b610e83565b3480156102d357600080fd5b5061018a6102e2366004611b88565b611018565b3480156102f357600080fd5b5061018a739ac64cc6e4415144c455bd8e4837fea55603e5c381565b34801561031b57600080fd5b5061029461032a366004611b0d565b60666020526000908152604090205461ffff1681565b34801561034c57600080fd5b5061010861035b366004611b88565b611042565b34801561036c57600080fd5b5061010861037b366004611b0d565b611126565b600054610100900460ff16158080156103a05750600054600160ff909116105b806103c157506103af3061119f565b1580156103c1575060005460ff166001145b6104295760405162461bcd60e51b815260206004820152602e60248201527f496e697469616c697a61626c653a20636f6e747261637420697320616c72656160448201526d191e481a5b9a5d1a585b1a5e995960921b60648201526084015b60405180910390fd5b6000805460ff19166001179055801561044c576000805461ff0019166101001790555b835185511461046d5760405162461bcd60e51b815260040161042090611ba1565b600083116104bd5760405162461bcd60e51b815260206004820152601e60248201527f526174696f2073686f756c642062652067726561746572207468616e203000006044820152606401610420565b84516104d0906065906020880190611876565b506000805b8651811015610589578581815181106104f0576104f0611be2565b60200260200101516066600089848151811061050e5761050e611be2565b60200260200101516001600160a01b03166001600160a01b0316815260200190815260200160002060006101000a81548161ffff021916908361ffff16021790555085818151811061056257610562611be2565b6020026020010151826105759190611c0e565b91508061058181611c30565b9150506104d5565b50610596816103e8611c49565b6067805461ffff191661ffff929092169190911790556068849055606e805460ff19169055606f8390556040517f2e76518a8d37ee50fd5c9f43d9cd8caa7b74a34e5c09d69eaa2492591a409702906105f6908890889088908890611c64565b60405180910390a16106066111ae565b50801561064e576000805461ff0019169055604051600181527f7f26b83ff96e1f2b6a682f133852f6798a09c465da95921460cefb3847402498906020015b60405180910390a15b5050505050565b6001606e5460ff16600381111561066e5761066e611abb565b1461068b5760405162461bcd60e51b815260040161042090611cc9565b6000341161069857600080fd5b604080516002808252606082018352600092602083019080368337019050509050739ac64cc6e4415144c455bd8e4837fea55603e5c36001600160a01b031663ad5c46486040518163ffffffff1660e01b8152600401602060405180830381865afa15801561070b573d6000803e3d6000fd5b505050506040513d601f19601f8201168201806040525081019061072f9190611ceb565b8160008151811061074257610742611be2565b60200260200101906001600160a01b031690816001600160a01b03168152505073dac17f958d2ee523a2206206994597c13d831ec78160018151811061078a5761078a611be2565b6001600160a01b039092166020928302919091019091015260405163d06ca61f60e01b8152600090739ac64cc6e4415144c455bd8e4837fea55603e5c39063d06ca61f906107de9034908690600401611d08565b600060405180830381865afa1580156107fb573d6000803e3d6000fd5b505050506040513d6000823e601f3d908101601f191682016040526108239190810190611d21565b905060005b606554811015610957576000606660006065848154811061084b5761084b611be2565b60009182526020808320909101546001600160a01b0316835282019290925260400190205461ffff1611156109455760006065828154811061088f5761088f611be2565b6000918252602082200154606580546001600160a01b03909216926103e89260669290879081106108c2576108c2611be2565b60009182526020808320909101546001600160a01b031683528201929092526040019020546108f59061ffff1634611da6565b6108ff9190611dc3565b604051600081818185875af1925050503d806000811461093b576040519150601f19603f3d011682016040523d82523d6000602084013e610940565b606091505b505050505b8061094f81611c30565b915050610828565b50610988338260018151811061096f5761096f611be2565b602002602001015160696111dd9092919063ffffffff16565b336001600160a01b03167fc55650ccda1011e1cdc769b1fbf546ebb8c97800b6072b49e06cd560305b1d67826001815181106109c6576109c6611be2565b60200260200101516040516109dd91815260200190565b60405180910390a25050565b6109f16112c2565b8251845114610a125760405162461bcd60e51b815260040161042090611ba1565b8351610a25906065906020870190611876565b506000805b8551811015610ade57848181518110610a4557610a45611be2565b602002602001015160666000888481518110610a6357610a63611be2565b60200260200101516001600160a01b03166001600160a01b0316815260200190815260200160002060006101000a81548161ffff021916908361ffff160217905550848181518110610ab757610ab7611be2565b602002602001015182610aca9190611c0e565b915080610ad681611c30565b915050610a2a565b50610aeb816103e8611c49565b6067805461ffff191661ffff929092169190911790556068839055606e805460ff19169055606f8290556040517f2e76518a8d37ee50fd5c9f43d9cd8caa7b74a34e5c09d69eaa2492591a40970290610645908790879087908790611c64565b610b536112c2565b42606f5410610ba35760405162461bcd60e51b815260206004820152601c60248201527b4c6f636b20706572696f64206973206e6f74206f766572207965742160201b6044820152606401610420565b6040516370a0823160e01b8152610c3d90829073dac17f958d2ee523a2206206994597c13d831ec7906370a0823190610be0903090600401611af9565b602060405180830381865afa158015610bfd573d6000803e3d6000fd5b505050506040513d601f19601f82011682018060405250810190610c219190611de5565b73dac17f958d2ee523a2206206994597c13d831ec79190611321565b6000816001600160a01b03164760405160006040518083038185875af1925050503d8060008114610c8a576040519150601f19603f3d011682016040523d82523d6000602084013e610c8f565b606091505b5050905080610cd05760405162461bcd60e51b815260206004820152600d60248201526c1499599d5b990811985a5b1959609a1b6044820152606401610420565b5050565b6003606e5460ff166003811115610ced57610ced611abb565b14610d2a5760405162461bcd60e51b815260206004820152600d60248201526c6e6f7420636c61696d61626c6560981b6044820152606401610420565b6000610d37606933611384565b50509050600073dac17f958d2ee523a2206206994597c13d831ec76001600160a01b031663313ce5676040518163ffffffff1660e01b8152600401602060405180830381865afa158015610d8f573d6000803e3d6000fd5b505050506040513d601f19601f82011682018060405250810190610db39190611dfe565b610dbe90600a611f05565b606854610dcb9084611da6565b610dd59190611dc3565b9050610df673dac17f958d2ee523a2206206994597c13d831ec73383611321565b610e016069336113c5565b60405181815233907fd8138f8a3f377c5259ca548e70e4c2de94f129f5a11036a15b69513cba2b426a906020016109dd565b6060610e3f60696114f0565b905090565b610e4c6112c2565b610e566000611556565b565b6033546001600160a01b031690565b60008080610e76606985611384565b9196909550909350915050565b6001606e5460ff166003811115610e9c57610e9c611abb565b14610eb95760405162461bcd60e51b815260040161042090611cc9565b60008111610ec657600080fd5b610ee673dac17f958d2ee523a2206206994597c13d831ec73330846115a8565b60005b606554811015610fd35760006066600060658481548110610f0c57610f0c611be2565b60009182526020808320909101546001600160a01b0316835282019290925260400190205461ffff161115610fc157610fc160658281548110610f5157610f51611be2565b6000918252602082200154606580546001600160a01b03909216926103e8926066929087908110610f8457610f84611be2565b60009182526020808320909101546001600160a01b03168352820192909252604001902054610fb79061ffff1686611da6565b610c219190611dc3565b80610fcb81611c30565b915050610ee9565b50610fe0606933836111dd565b60405181815233907fc55650ccda1011e1cdc769b1fbf546ebb8c97800b6072b49e06cd560305b1d679060200160405180910390a250565b6065818154811061102857600080fd5b6000918252602090912001546001600160a01b0316905081565b61104a6112c2565b606e5460ff16600381111561106157611061611abb565b8111801561106f5750600481105b6110ae5760405162461bcd60e51b815260206004820152601060248201526f696e636f72726563742073746174757360801b6044820152606401610420565b606e54819060ff1660038111156110c7576110c7611abb565b6040517f150b944d2f668fb8c44fa57a4dd1c95f72d46a1efea6a92a497a002cf491f47b90600090a380600381111561110257611102611abb565b606e805460ff1916600183600381111561111e5761111e611abb565b021790555050565b61112e6112c2565b6001600160a01b0381166111935760405162461bcd60e51b815260206004820152602660248201527f4f776e61626c653a206e6577206f776e657220697320746865207a65726f206160448201526564647265737360d01b6064820152608401610420565b61119c81611556565b50565b6001600160a01b03163b151590565b600054610100900460ff166111d55760405162461bcd60e51b815260040161042090611f14565b610e566115e6565b6001600160a01b038216600090815260038401602052604090205460ff1615611235576001600160a01b03821660009081526001840160205260408120805483929061122a908490611f5f565b909155506112bd9050565b6001600160a01b03821660009081526003840160209081526040808320805460ff19166001908117909155860190915281208054839290611277908490611f5f565b909155505082546001600160a01b038316600081815260028601602090815260408220849055600184018755868252902090910180546001600160a01b03191690911790555b505050565b336112cb610e58565b6001600160a01b031614610e565760405162461bcd60e51b815260206004820181905260248201527f4f776e61626c653a2063616c6c6572206973206e6f7420746865206f776e65726044820152606401610420565b6040516001600160a01b0383166024820152604481018290526112bd90849063a9059cbb60e01b906064015b60408051601f198184030181529190526020810180516001600160e01b03166001600160e01b031990931692909217909152611616565b6001600160a01b0316600090815260018201602090815260408083205460038501835281842054600490950190925290912054909260ff9283169290911690565b6001600160a01b038116600090815260038301602052604090205460ff1661141b5760405162461bcd60e51b81526020600482015260096024820152681b9bc81a5b9d995cdd60ba1b6044820152606401610420565b6001600160a01b038116600090815260048301602052604090205460ff16156114785760405162461bcd60e51b815260206004820152600f60248201526e185b1c9958591e4818db185a5b5959608a1b6044820152606401610420565b6001600160a01b03811660009081526001830160205260409020546114c95760405162461bcd60e51b8152602060048201526007602482015266076616c75653e360cc1b6044820152606401610420565b6001600160a01b03166000908152600490910160205260409020805460ff19166001179055565b60608160000180548060200260200160405190810160405280929190818152602001828054801561154a57602002820191906000526020600020905b81546001600160a01b0316815260019091019060200180831161152c575b50505050509050919050565b603380546001600160a01b038381166001600160a01b0319831681179093556040519116919082907f8be0079c531659141344cd1fd0a4f28419497f9722a3daafe3b4186f6b6457e090600090a35050565b6040516001600160a01b03808516602483015283166044820152606481018290526115e09085906323b872dd60e01b9060840161134d565b50505050565b600054610100900460ff1661160d5760405162461bcd60e51b815260040161042090611f14565b610e5633611556565b600061166b826040518060400160405280602081526020017f5361666545524332303a206c6f772d6c6576656c2063616c6c206661696c6564815250856001600160a01b03166116e89092919063ffffffff16565b8051909150156112bd57808060200190518101906116899190611f72565b6112bd5760405162461bcd60e51b815260206004820152602a60248201527f5361666545524332303a204552433230206f7065726174696f6e20646964206e6044820152691bdd081cdd58d8d9595960b21b6064820152608401610420565b60606116f784846000856116ff565b949350505050565b6060824710156117605760405162461bcd60e51b815260206004820152602660248201527f416464726573733a20696e73756666696369656e742062616c616e636520666f6044820152651c8818d85b1b60d21b6064820152608401610420565b600080866001600160a01b0316858760405161177c9190611fb8565b60006040518083038185875af1925050503d80600081146117b9576040519150601f19603f3d011682016040523d82523d6000602084013e6117be565b606091505b50915091506117cf878383876117da565b979650505050505050565b60608315611847578251600003611840576117f48561119f565b6118405760405162461bcd60e51b815260206004820152601d60248201527f416464726573733a2063616c6c20746f206e6f6e2d636f6e74726163740000006044820152606401610420565b50816116f7565b6116f7838381511561185c5781518083602001fd5b8060405162461bcd60e51b81526004016104209190611fd4565b8280548282559060005260206000209081019282156118cb579160200282015b828111156118cb57825182546001600160a01b0319166001600160a01b03909116178255602090920191600190910190611896565b506118d79291506118db565b5090565b5b808211156118d757600081556001016118dc565b634e487b7160e01b600052604160045260246000fd5b604051601f8201601f191681016001600160401b038111828210171561192e5761192e6118f0565b604052919050565b60006001600160401b0382111561194f5761194f6118f0565b5060051b60200190565b6001600160a01b038116811461119c57600080fd5b600082601f83011261197f57600080fd5b8135602061199461198f83611936565b611906565b82815260059290921b840181019181810190868411156119b357600080fd5b8286015b848110156119df57803561ffff811681146119d25760008081fd5b83529183019183016119b7565b509695505050505050565b60008060008060808587031215611a0057600080fd5b84356001600160401b0380821115611a1757600080fd5b818701915087601f830112611a2b57600080fd5b81356020611a3b61198f83611936565b82815260059290921b8401810191818101908b841115611a5a57600080fd5b948201945b83861015611a81578535611a7281611959565b82529482019490820190611a5f565b98505088013592505080821115611a9757600080fd5b50611aa48782880161196e565b949794965050505060408301359260600135919050565b634e487b7160e01b600052602160045260246000fd5b6020810160048310611af357634e487b7160e01b600052602160045260246000fd5b91905290565b6001600160a01b0391909116815260200190565b600060208284031215611b1f57600080fd5b8135611b2a81611959565b9392505050565b600081518084526020808501945080840160005b83811015611b6a5781516001600160a01b031687529582019590820190600101611b45565b509495945050505050565b602081526000611b2a6020830184611b31565b600060208284031215611b9a57600080fd5b5035919050565b60208082526021908201527f6e6f742073616d6520726563656976657220616e6420726174696f20636f756e6040820152601d60fa1b606082015260800190565b634e487b7160e01b600052603260045260246000fd5b634e487b7160e01b600052601160045260246000fd5b61ffff818116838216019080821115611c2957611c29611bf8565b5092915050565b600060018201611c4257611c42611bf8565b5060010190565b61ffff828116828216039080821115611c2957611c29611bf8565b608081526000611c776080830187611b31565b82810360208481019190915286518083528782019282019060005b81811015611cb257845161ffff1683529383019391830191600101611c92565b505060408501969096525050506060015292915050565b6020808252600890820152676e6f74206c69766560c01b604082015260600190565b600060208284031215611cfd57600080fd5b8151611b2a81611959565b8281526040602082015260006116f76040830184611b31565b60006020808385031215611d3457600080fd5b82516001600160401b03811115611d4a57600080fd5b8301601f81018513611d5b57600080fd5b8051611d6961198f82611936565b81815260059190911b82018301908381019087831115611d8857600080fd5b928401925b828410156117cf57835182529284019290840190611d8d565b8082028115828204841417611dbd57611dbd611bf8565b92915050565b600082611de057634e487b7160e01b600052601260045260246000fd5b500490565b600060208284031215611df757600080fd5b5051919050565b600060208284031215611e1057600080fd5b815160ff81168114611b2a57600080fd5b600181815b80851115611e5c578160001904821115611e4257611e42611bf8565b80851615611e4f57918102915b93841c9390800290611e26565b509250929050565b600082611e7357506001611dbd565b81611e8057506000611dbd565b8160018114611e965760028114611ea057611ebc565b6001915050611dbd565b60ff841115611eb157611eb1611bf8565b50506001821b611dbd565b5060208310610133831016604e8410600b8410161715611edf575081810a611dbd565b611ee98383611e21565b8060001904821115611efd57611efd611bf8565b029392505050565b6000611b2a60ff841683611e64565b6020808252602b908201527f496e697469616c697a61626c653a20636f6e7472616374206973206e6f74206960408201526a6e697469616c697a696e6760a81b606082015260800190565b80820180821115611dbd57611dbd611bf8565b600060208284031215611f8457600080fd5b81518015158114611b2a57600080fd5b60005b83811015611faf578181015183820152602001611f97565b50506000910152565b60008251611fca818460208701611f94565b9190910192915050565b6020815260008251806020840152611ff3816040850160208701611f94565b601f01601f1916919091016040019291505056fea26469706673582212209ad3249ba589769022403783b3b8d5caf6d953c668fb2d1d2f1ac9ab9659074864736f6c63430008110033",
  "linkReferences": {},
  "deployedLinkReferences": {}
}